:040000009DEF03F07D
:08000800046ED8CF05F0E0CF33
:1000100006F00001E9CF0CF0EACF07F0E1CF08F0DD
:10002000E2CF09F0D9CF0AF0DACF0BF0F3CF12F01C
:10003000F4CF13F0FACF14F0F5CF15F0F6CF16F099
:10004000F7CF17F000C00EF001C00FF002C010F0A3
:1000500003C011F0F2AA30EF00F0F2B4C0EF01F0EB
:10006000F2A836EF00F0F2B2DCEF01F0F0A63CEFC0
:1000700000F0F0B0E8EF01F0F0A842EF00F0F0B2CD
:10008000EFEF01F09DAA48EF00F09EBA82EF01F079
:100090000EC000F00FC001F010C002F011C003F05C
:1000A0000CC0E9FF07C0EAFF078E08C0E1FF09C0E6
:1000B000E2FF0AC0D9FF0BC0DAFF12C0F3FF13C082
:1000C000F4FF14C0FAFF15C0F5FF16C0F6FF17C005
:1000D000F7FF045006C0E0FF05C0D8FF10007851BC
:1000E0007A19800B7C6F78AF05D0771F781F772B3C
:1000F000D8B4782B7AAF05D0791F7A1F792BD8B472
:100100007A2B77517903F3CF01F0F4CF00F07A0323
:10011000F350002678517903F3500020026E7CAF33
:1001200005D0011E021E012AD8B4022A03EF01F0F5
:10013000756B736B0A0E746F726B716B6F5170110C
:1001400004E1000E016E026EDBD07551752B6F2538
:10015000E96E000E7021EA6EEFCF76F076512D0831
:100160000CE1010E736F7551752B6F25E96E000E52
:100170007021EA6EEFCF76F00CD076512B0809E1B2
:100180007551752B6F25E96E000E7021EA6EEFCF69
:1001900076F076512F08D8B0A5D076513908D8A07E
:1001A000A1D0765130081EE175516F25E96E000E21
:1001B0007021EA6EEF50780809E075516F25E96EFD
:1001C000000E7021EA6EEF5058080CE1100E746FAB
:1001D000752B7551752B6F25E96E000E7021EA6E37
:1001E000EFCF76F074510A0820E176512F081CE217
:1001F0007651390819E3786B0A0E776F72C07AF07E
:1002000071C079F06CD7300E765D0124716F000EED
:100210000220726F7551752B6F25E96E000E7021EB
:10022000EA6EEFCF76F0E1D75DD0745110085AE155
:100230007651600806E276517A0803E37651DF0BC7
:1002400001D07651766F76512F0803E27651390846
:1002500006E27651400846E27651460843E376517D
:100260002F0817E27651390814E37135776F72352C
:10027000786F773778377737783777377837F00E82
:100280007717300E765D7725716F000E7821726FCB
:1002900014D07135776F7235786F77377837773755
:1002A000783777377837F00E7717410E765D0A0F7B
:1002B0007725716F000E7821726F7551752B6F2540
:1002C000E96E000E7021EA6EEFCF76F0765160088D
:1002D00006E276517A0803E37651DF0B01D07651BE
:1002E000766FB1D774510A0807E1732D05D0711FDD
:1002F000721F712BD8B4722B71C001F072C002F062
:100300009DEF01F09EAA39D09EAAFED7AECF6EF027
:100310006E510A0803E06E510D0825E11F5222E0DC
:10032000036A1F50200FE96E000E0320EA6EEF6A89
:100330001F6A706B200E6F6FFBD601C000F002C009
:1003400001F0026A036A01AE02D00206030603C08E
:100350002EF002C02DF001C02CF000C02BF01F6A5F
:10036000010E536E0AD0036A1F50200FE96E000E73
:100370000320EA6E6EC0EFFF1F2A9E9A48EF00F03E
:1003800050C0D7FF4FC0D6FF010E2F26000E3022DF
:1003900031223222010E3326000E3422352236223B
:1003A000010E3726000E382239223A229D8A010E8C
:1003B000546EF29448EF00F0326A316A306A2F6A64
:1003C0002A50030802E3010E2A26F29248EF00F0B9
:1003D000366A356A346A336AF09048EF00F03A6A58
:1003E000396A386A376AF09248EF00F0616E6775D3
:1003F0006C6F206465206469737061726F20256C76
:10040000640D0A200000B60E006E036A026A016ADB
:10041000599058AE0CD05980551E561E571E581E66
:10042000552A05E1562A03E1572AD8B4582A5550CF
:1004300056105710581002E1006A0FD0D89001BE34
:1004400009D05536563657365836033602360136F9
:10045000002EF4D7019E59B0018E0FEF04F05550D5
:10046000D8B471D0006E5950D8B46DD0002604E3D2
:10047000810E002668E204D07F0E005E64E363E034
:1004800056C05DF05A505D1A568E5A8E58505C0216
:10049000F4CF5FF057505B02F4CF03F0F3CF5EF080
:1004A0005C02F3505F26F4505E22000E0322585087
:1004B0005B02F3505F26F4505E22000E026A0322B4
:1004C000022256505C02F3505E26F4500322000EC6
:1004D000022256505B02F3500326F4500222000E13
:1004E000016A012258505A02F3505E26F45003224A
:1004F000000E0222012257505A02F3500326F450F4
:100500000222000E012256505A02F3500226F450E5
:100510000122002A01BE05D05E36033602360136BE
:100520000006000E5EAE0AD0032A0222012201500C
:1005300005E1025003E1035001E1002A5DBE018E96
:100540005DAE019E04D0006A016A026A036A20EF70
:1005500004F05550B608556E036A56C059F0568ED1
:10056000D8905632573258320332023201320032BA
:10057000552EF6D759AE0BD0001E011E021E031ECB
:10058000002AD8B4012AD8B4022AD8B4032A29EF01
:1005900004F00900F6CF56F0F7CF57F0F5509EA8BB
:1005A000FED7AD6E56C0F6FF57C0F7FF552EF1D7F8
:1005B0001200D8B203D0EA6A690EE96E006A016AD5
:1005C000026A036A696B6A6B6B6B6C6B68516711CB
:1005D000661165112CE0200E6D6FD890613762377F
:1005E0006337643769376A376B376C3768516C5DCE
:1005F00008E167516B5D05E166516A5D02E1655195
:10060000695D0FE36551695F6651D8A0663D6A5F19
:100610006751D8A0673D6B5F6851D8A0683D6C5F9B
:10062000D88000360136023603366D2FD6D769C022
:10063000EFFF6AC0ECFF6BC0ECFF6CC0ECFF120078
:10064000E950596E58AE0DD05906598A551E561E9E
:10065000571E581E552AD8B4562AD8B4572AD8B48B
:10066000582A3B0E606F9A0E5F6ECA0E5E6E5D6A10
:100670000A0E5B6ED882EA6A550EE96E58C064F0C5
:1006800057C063F056C062F055C061F060C068F0BA
:100690005FC067F05EC066F05DC065F08ADF015044
:1006A00000520FE15B50010A0CE059500CE00F0BB7
:1006B0005B5C01E027E259BE25D059BC04D0200E76
:1006C0001CD0200E591659AA0AD0599A00C059F0C8
:1006D0002D0E9EA8FED7AD6E59C000F0596A300E9F
:1006E00059AA0BD0599A00C059F02D0E9EA8FED7DA
:1006F000AD6E59C000F0596A300E002600509EA819
:10070000FED7AD6ED89260C064F05FC063F05EC08B
:1007100062F05DC061F0686B676B666B0A0E656FB7
:1007200048DF03C060F002C05FF001C05EF000C0AF
:100730005DF05B2E9FD743EF04F0F86AD09E078EE2
:10074000B896400EAF6EA60EAC6E900EAB6E1F6AE2
:100750002A6A2E6A2D6A2C6A2B6A326A316A306ADA
:100760002F6A366A356A346A336A3A6A396A386A8D
:10077000376A3E6A3D6A3C6A3B6A426A416A406A3D
:100780003F6A466A456A446A436A4A6A496A486AED
:10079000476A4E6A4D6A4C6A4B6A526A516A50689F
:1007A0003C0E4F6E536A546AC150C00B0F09C16EA4
:1007B000070EB46E196A1A6A010E536E2E6A2D6AFC
:1007C0002C6A320E2B6E0A0E2B5E000E2C5A2D5AFE
:1007D0002E5A070E936E8A96936E8A98936E8A9A13
:1007E000936E8A9C936E8A9EEF0E926E8998F28A1F
:1007F000880ED56E50C0D7FF4FC0D6FFF288F08666
:10080000F088C00EF212532C71D0536A2EC058F0EB
:100810002DC057F02CC056F02BC055F0F4D57B0EF0
:10082000586E090E576E6D0E566E7E0E556E03C0D5
:100830005CF002C05BF001C05AF000C059F00FD666
:1008400003C058F002C057F001C056F000C055F088
:1008500080D603C03EF002C03DF001C03CF000C0B5
:100860003BF0EC0EF66E030EF76E120E556E91DE37
:10087000410EE96E2EC058F02DC057F02CC056F036
:100880002BC055F0DDD6010EF66E040EF76E030E8A
:10089000556E7FDE3EC042F03DC041F03CC040F0AE
:1008A0003BC03FF00E0E3B24436E000E3C20446ED6
:1008B000000E3D20456E000E3E20466EA60E3B24E7
:1008C000476E000E3C20486E000E3D20496E000E23
:1008D0003E204A6EB40E3B244B6E000E3C204C6E04
:1008E000000E3D204D6E000E3E204E6E542CC1D0A9
:1008F0002A500308D8B0BDD03F502F5C0DE14050C6
:10090000305C0AE14150315C07E14250325C04E165
:10091000070E936E8A860FD043502F5C0CE1445033
:10092000305C09E14550315C06E14650325C03E140
:10093000070E936E8A9647502F5C0DE14850305C4D
:100940000AE14950315C07E14A50325C04E1070E8C
:10095000936E8A880FD04B502F5C0CE14C50305C6A
:1009600009E14D50315C06E14E50325C03E1070E67
:10097000936E8A983F50335C0DE14050345C0AE13D
:100980004150355C07E14250365C04E1070E936E3E
:100990008A8A2FD04350335C0DE14450345C0AE125
:1009A0004550355C07E14650365C04E1070E936E16
:1009B0008A9A1FD04750335C0DE14850345C0AE1FD
:1009C0004950355C07E14A50365C04E1070E936EEE
:1009D0008A8C0FD04B50335C0CE14C50345C09E1F5
:1009E0004D50355C06E14E50365C03E1070E936EC8
:1009F0008A9C3F50375C0DE14050385C0AE1415021
:100A0000395C07E142503A5C04E1070E936E8A8E2E
:100A10002FD04350375C0DE14450385C0AE145501B
:100A2000395C07E146503A5C04E1070E936E8A9EFA
:100A30001FD04750375C0DE14850385C0AE14950FF
:100A4000395C07E14A503A5C04E1EF0E926E898806
:100A50000FD04B50375C0CE14C50385C09E14D50E5
:100A6000395C06E14E503A5C03E1EF0E926E8998D4
:060A7000546AC9D6030020
:020000040030CA
:0E00000004CC261E0007A1000FC00FE00F4029
:00000001FF
;PIC18F4550
;CRC=23A4  CREATED="17-sept.-20 19:56"
